:020000040800F2
:1000000058410020D5000008851700087F1500081A
:1000100000000000000000000000000000000000E0
:10002000000000000000000000000000311800087F
:100030000000000000000000CD1700083318000881
:10004000E7000008E700000821180008E7000008A2
:10005000E70000082D020008E70000083D02000844
:10006000E7000008E7000008E7000008E7000008D4
:10007000E7000008E7000008E7000008E7000008C4
:10008000E7000008E7000008E700000800000000A3
:10009000E7000008E7000008E7000008E7000008A4
:1000A000E7000008E7000008E7000008E700000894
:1000B000111D0008E700000800000000E70000082C
:1000C0000348854600F0A0F800480047AD2C000822
:1000D000584100200448804704480047FEE7FEE7F7
:1000E000FEE7FEE7FEE7FEE7BD180008C1000008D6
:1000F00030B50B46014600202022012409E00D46C0
:10010000D5409D4205D31D469540491B2546954047
:1001100040191546521E002DF1DC30BDF0B51FB45C
:100120000646002082B005464024019100901BE065
:10013000019922460F46304600F054F8049A059B78
:10014000801A994110D310461946224600F03AF819
:10015000361A8F410197224601200021009F00F0AE
:1001600031F838184D4100902046641E0028DFDC2D
:10017000019B00982946324607B0F0BD03460B4369
:100180009B0703D009E008C9121F08C0042AFAD24D
:1001900003E00B780370401C491C521EF9D27047D3
:1001A000D2B201E00270401C491EFBD2704700220F
:1001B000F6E710B513460A4604461946FFF7F0FF66
:1001C000204610BD10B5202A04DB0146203A91409C
:1001D000002010BD914020239C1A0346E3401943A0
:1001E000904010BD10B5202A04DB0846203AD040CC
:1001F000002110BD0B46D340D0402024A21A9140CC
:100200000843194610BD0000064C0125064E05E0C6
:10021000E36807CC2B430C3C98471034B442F7D327
:10022000FFF752FF043100082431000810B5012007
:1002300000F05AF8022000F057F810BD10B5102059
:1002400000F052F80120400300F04EF810BD00B558
:10025000002200F001F800BD30B50E4B05465C7A77
:100260000120002C14D1587A1C54587A8000C018F0
:1002700045605D7A184608302A54587A421C5A72F2
:10028000303008703A2048702F208870CC700020E1
:1002900030BD00004C01002070B500240146203123
:1002A0004A79022A03D00421C163012418E00268BC
:1002B00013680E25AB431360026813685B085B008C
:1002C0001360436C1C221340012215469D40036CB1
:1002D0005D604A7100220A71816B002900D0884755
:1002E000204670BD7047000010B504494A690242BB
:1002F00002D04861FFF7F6FF10BD00000004014086
:10030000F8B500230124A7E027469F403A4070D06B
:100310004D68022D01D0122D14D1DD08AD002D182D
:1003200000952D6A5E07AC46F50E0F26AE46AE4030
:100330006546B543AC460E697546AE4065462E43EC
:10034000009D2E624D68012D05D0022D03D0112D88
:1003500001D0122D16D185680326AC465D00AE464D
:10036000AE406546B543AC46CE687546AE40654680
:100370002E43866046680D79BE43ED06ED0F9D4025
:100380003543456006685F000325BD40AE46AE4379
:100390000D79B446AE07B60FBE4065462E430660E3
:1003A000C6687546AE438D68BD403543C5604D682F
:1003B000ED0050D52B4D6E6B26436E639E082A4D83
:1003C000B6007519AC46AD689E07360F0F27B740CB
:1003D000BD4305273F07B84201D100271AE0234F4C
:1003E000B84201D1012715E0214FB84202D10227BE
:1003F00010E030E01F4FB84201D103270AE01E4F42
:10040000B84201D1042705E01C4FB84201D10527AD
:1004100000E00627B7402F436546AF60184D2E68B1
:100420004F689643FF0300D516432E606E684F68F1
:100430009643BF0300D516436E60AE684F6896437F
:10044000FF0200D51643AE60EE684F689643BF02C8
:1004500000D51643EE605B1C0A681546DD4000D0EF
:1004600052E7F8BD001002400000014000040050B7
:1004700000080050000C005000100050001C0050FC
:1004800000040140002A01D08161704781627047F9
:100490000148006870470000200000200248016801
:1004A000491C0160704700002000002010B508487A
:1004B00000240168402211430160204600F00AF840
:1004C000002801D0012401E000F01CF8204610BDF6
:1004D0000020024070B5054609487D210024C9006E
:1004E0000068FFF705FE00F025FF002801D0012479
:1004F00004E000222946501E00F01AF8204670BD84
:10050000240000200448416B012211434163816BA8
:10051000020411438163704700100240C106C90EF6
:1005200001208840014908607047000000E100E0B8
:1005300010B501F029F910BDF8B5044600785E4DFC
:10054000800672D55C4E0027403EB06BC00004D4DC
:10055000B06BA9050843B063012758480168C90575
:1005600011D40168821511430160FFF791FF0090DB
:1005700005E0FFF78DFF0099401A642837D84F48EF
:100580000068C005F5D532680321090560680A4096
:100590000140914208D08103890F032904D13168B9
:1005A000890301D50120F8BD2A69032109040A4005
:1005B00022D0084090421FD0207880061CD52869A0
:1005C0002A6988430121C9040A432A612A698A43A6
:1005D0002A612861C0050FD5FFF75AFF009008E097
:1005E000FFF756FF0099411A3548814201D903208F
:1005F000F8BD28698005F3D561688803800F03285A
:1006000005D132680005824301400A4332602869FF
:10061000032261681204114008432861002F04D0AE
:10062000B06B012109078843B0632078C00705D06B
:10063000E868A168800880000843E86020788007A7
:1006400005D5E8680C218843E1680843E860207814
:10065000400706D5E86803218902884321690843D9
:10066000E8602078000706D5E8680321090388437D
:1006700061690843E8602088C00506D5E868032161
:1006800009048843A1690843E8602078400606D53C
:10069000E868012189068843216A0843E8602078D8
:1006A000000606D5E868032189048843E169084308
:1006B000E8600020F8BD00004010024000700040DB
:1006C00088130000F8B50E4605007DD05348006839
:1006D000C007C00FB0420AD250480168490849001B
:1006E000314301600068C007C00FB04271D1287863
:1006F0004B4C800705D5E068F0218843A968084382
:10070000E0602878C00752D06868022817D0032814
:1007100018D02168012818D08905002959DAE16824
:10072000890889000143E160FFF7B2FE6968074666
:10073000022912D003291CD0012926D033E02168D8
:100740008903EAE721688901E7E74907E5E7FFF759
:100750009FFEC11B3348814223D8E0680007800F09
:100760000228F4D123E0FFF793FEC11B2D488142FC
:1007700017D8E0680007800F0328F4D117E0FFF7CF
:1007800087FEC11B274881420BD8E0680007800F15
:100790000128F4D10BE0FFF77BFEC11B2148814209
:1007A00001D90320F8BDE0680007800FF3D11B4892
:1007B0000168C907C90FB1420DD90168490849004C
:1007C00031430160006800E003E0C007C00FB042A1
:1007D00001D00120F8BD2878400706D5E068072140
:1007E00009028843E9680843E0602878000707D5D4
:1007F000E0680721C90288432969C9000843E0600D
:1008000000F036F8E168084A0906090F515CC84053
:10081000064908600020FFF75DFEF8BD0020024099
:10082000001002408813000044300008240000201B
:10083000044805490068C968044A4905490F515CE4
:10084000C840704724000020001002405D300008BE
:10085000044805490068C968044A8904490F515C85
:10086000C840704724000020001002405D3000089E
:1008700010B5184AD1680C20084004280BD008286D
:1008800010D00C2810D050680004410F0120C00384
:10089000491C884010BD1068C00601D50E4810BD27
:1008A0000E4810BD0E4810BD88020E4B000F185C9C
:1008B0000902D368890F491CDB0301D5084A05E00A
:1008C0001268D20601D5044A00E0044A5043FFF7FB
:1008D0000FFC10BD0010024000093D000024F40090
:1008E00000127A0054300008FEB505007ED0F94CA5
:1008F000E7680C20E66807400120000406402878DD
:10090000C00747D0082F05D00C2F0AD101200004C2
:10091000864206D1206880033CD568680028E5D06F
:1009200038E0012069680004814203D12168014355
:10093000216011E0052301221B04920499422168E1
:1009400002D111432160F1E7814321602168014018
:100950000091206890432060686800280DD0FFF760
:1009600097FD009005E0FFF793FD0099401A642879
:100970007ED820688003F6D50CE0FFF789FD009053
:1009800005E0FFF785FD0099401A6428F0D820683B
:100990008003F6D4287880075CD5E868810604D502
:1009A000226820210A43226088430923042F0DD0A6
:1009B0000C2F01D1002E09D000283BD0216899438B
:1009C00001432160FFF764FD064627E021684907DF
:1009D00001D500288AD061681F22120291432A693A
:1009E0001202114361602168994300E0C3E10143B1
:1009F0002160FFF73DFFE16809060A0FB649895CEF
:100A0000C840B64908600020FFF764FD002873D194
:100A100020E0FFF73DFD801B0228A9D82068400791
:100A2000F7D560681F210902884329690902084334
:100A300060600FE02068400840002060FFF728FD5C
:100A4000064604E0FFF724FD801B022890D82068AA
:100A50004007F7D42878C00660D5002F0DD0E8698C
:100A600000284AD02068FF2101310843206000E0BF
:100A7000E8E0FFF70DFD06462CE02068800502D572
:100A8000E8690028A6D06068072149038843696A9D
:100A9000084360606068298C0002000A0906084368
:100AA0006060686A410B0120C003491C8840E1680E
:100AB00009060A0F8849895CC840884908600020F7
:100AC000FFF708FD002817D128E0FFF7E1FC801BA5
:100AD0000228A2D820688005F7D56068072149035D
:100AE0008843696A084360606068298C0002000AD4
:100AF00009060843606011E023E12168FF2001300E
:100B000081432160FFF7C4FC064604E0FFF7C0FC08
:100B1000801B02289AD820688005F7D42878704E68
:100B2000000724D568690028306910D001210843E6
:100B30003061FFF7ADFC009005E0FFF7A9FC0099DC
:100B4000401A02287ED830698007F6D50FE04008A9
:100B500040003061FFF79CFC009005E0FFF798FC37
:100B60000099401A02286DD830698007F6D4287899
:100B7000400764D500200290A06BC00006D4A06B93
:100B8000012109070843A06301200290554801682C
:100B9000C90511D40168821511430160FFF778FC83
:100BA000009005E0FFF774FC0099401A642849D8CA
:100BB0004C480068C005F5D5FF20AA680130824284
:100BC00003D131690143316111E001218902002A19
:100BD00007D005231B029A4203D132690A433261CE
:100BE000EFE7326982433261306988433061A86837
:100BF00000280ED0FFF74CFC009006E0FFF748FC01
:100C00000099411A384881421CD830698005F5D5D1
:100C10000DE0FFF73DFC009006E0FFF739FC00997E
:100C2000411A314881420DD830698005F5D40298C7
:100C3000002804D0A06B012109078843A06328780D
:100C4000800600E07CE02ED52848A96943140029DD
:100C500016D0A26801210A43A260626B0A43626354
:100C6000016A19430162FFF713FC064604E0FFF72F
:100C70000FFC801B022863D8A0688007F7D512E01C
:100C8000A16849084900A160016A99430162FFF720
:100C9000FFFB064604E0FFF7FBFB801B02284FD852
:100CA000A0688007F7D4A86A002866D00C2F4DD022
:100CB000012636060228206805D0B0432060FFF7E1
:100CC000E7FB05463EE0B0432060FFF7E1FB074647
:100CD00013E000000010024044300008240000200F
:100CE00040100240007000408813000000000140E6
:100CF000FFF7CEFBC01B022822D820688001F7D462
:100D0000296BE86AE2680843696BFD231B049A4378
:100D100011430843E060206830432060FFF7B8FBD0
:100D2000054604E0FFF7B4FB401B022808D8206802
:100D30008001F7D521E0FFF7ABFB401B022801D96A
:100D40000320FEBD20688001F5D416E00128F8D00C
:100D5000E06801210904EA6A014091420BD10F21A8
:100D600089042A6B0140914205D10321890508407D
:100D7000696B884201D00120FEBD0020FEBD704796
:100D80007047000070B50446006881688025C9047A
:100D900000290BDAC068C00508D52046FFF7F0FF30
:100DA0002168C8682840FF388238C8602068816898
:100DB00089040BD5C068800508D52046FFF7DFFF02
:100DC0002068C168054A29408918C160012004498A
:100DD0004004486101202034607070BD7FFDFFFF3A
:100DE00000040140F8B5040050D02546203568784D
:100DF000002803D12870204600F052F802206870C5
:100E00002168CA204862216853204862204600F0C9
:100E1000EAFCFF2604270028206802D046626F7093
:100E200034E081681D4A11408160216888686268E9
:100E3000A369104322691A43104388602168E0685F
:100E40000861206801692289120411430161206848
:100E5000C16880229143C1602068C16C8908890003
:100E6000C164E169606901432068C26C1143C164D7
:100E70002068806880060BD4204600F0C7F900285F
:100E800006D0206846626F70002028700120F8BDEF
:100E900020684662012068700020F8BDBFFF8FFF08
:100EA00010B50068084988420DD10848016901223F
:100EB000920411430161002211460220FFF738FB22
:100EC0000220FFF72BFB10BD00280040401002401D
:100ED000FEB506460446203630780B4601283ED043
:100EE0000120307002207070184620300090206879
:100EF00000278068002A34D0400600D4DF701978BB
:100F00009D7809040D435978DA78090212041143D7
:100F10000D430099D869097809060D4305435869BE
:100F2000996905435868084300902168CA204862BF
:100F3000216853204862FF205A6A01308021824292
:100F400045D122689368834393602068C2680A4051
:100F5000FF3A823AC260FFF79BFA019024E0022038
:100F6000FEBD400600D4DF70187800F030FC0504A8
:100F7000587800F02CFC00020543987800F027FC1C
:100F80000543D878000405430098007800F01FFC62
:100F900000060543D869C1E7FFF77AFA0199411ABB
:100FA0007D20C00081422AD82068C068C007F3D0E5
:100FB0002068C56121680098486420688168FF2224
:100FC00001321143816020688168120130E020689D
:100FD000826801235B029A4382602068C2680A40EB
:100FE0001D495118C160FFF753FA01900EE0FFF759
:100FF0004FFA0199411A7D20C000814206D921682B
:10100000FF204862032070703770FEBD2068C06802
:101010008007ECD520680562216800988864206804
:1010200081680122520211438160206881681201A7
:101030001143816009480268012149040A430260A2
:1010400082680A4382602168FF2048620120707034
:1010500037700020FEBD00007FFDFFFF000401404F
:10106000F8B505460446203528780B4601280FD0F0
:101070000120287002206870002A0BD0D8789E7852
:10108000000406435878097800024903084317E032
:101090000220F8BD5878C10603D5EF2108400A3078
:1010A0005870D87800F093FB0604587800F08FFB56
:1010B00000020643987800F08AFB06431878400344
:1010C00006432168CA2048622168532048622046AE
:1010D00000F089FB0027002811D111480640206844
:1010E00046602068C16880229143C16020688068A2
:1010F00080060CD4204600F089F8002807D021682B
:10110000FF204862042068702F700120F8BD21681C
:10111000FF204862012068702F700020F8BD000099
:101120003FFFFF00F8B506460446203630780D46EE
:10113000012822D001203070022070702068002722
:101140008068002A1BD0400600D4EF702978A87868
:10115000090408436978EA78090212041143084334
:1011600000902168CA2048622168532048622046C6
:1011700000F039FB002837D116E00220F8BD400608
:1011800000D4EF70287800F022FB0304687800F0A8
:101190001EFB00020343A87800F019FB0343E87824
:1011A000000403430093DCE71749009808402168D6
:1011B0000860206881680122920491438160296956
:1011C000E868084321688A68104388602068C1681D
:1011D00080229143C1602068806880060CD420463C
:1011E00000F014F8002807D02168FF20486204208E
:1011F000707037700120F8BD2168FF20486201201F
:10120000707037700020F8BD7F7F7F0070B5044696
:101210000068C168A0229143C160FFF739F97D26BB
:101220000546F60006E0FFF733F9401BB04201D94E
:10123000032070BD2068C0688006F4D5002070BD12
:1012400070B5040007D0002625464035A662687CAC
:10125000002802D005E0012070BD2E74204600F069
:101260002FF80220687420680168402291430160D1
:10127000A168606822690843E16811430843616915
:1012800001220843A169520211400843E169084361
:10129000216A0843A16A084321680860A069042103
:1012A000000C0840616A0843216848602068C169F1
:1012B00092009143C161666501206874002070BD91
:1012C00070B586B0044614216846FEF770FF1649D3
:1012D0002068884225D11548416B8214114341632F
:1012E000C16A02242143C162C16A21400591C16AD9
:1012F00001221143C162C06A0025104005900820F8
:101300000326694671C1694609480495FEF7F8FF4E
:10131000C020694671C10520694600070495FEF7A3
:10132000EFFF06B070BD0000003001400010024029
:1013300000040050094910B5401E884201D901201F
:1013400010BD074C60610321081F00F01DFA00204A
:10135000A06107202061002010BD0000FFFFFF00FA
:1013600000E000E070477047F8B502680446D069B5
:101370001168936805072D0F5BD0DD07ED0FFF2681
:1013800021360E402E4367D0C60706D0CE0504D5C1
:1013900001261662E26F3243E267870702220426C3
:1013A000002F06DADF0704D027683A62E76F374379
:1013B000E767470706D5DB0704D023681E62E36FA3
:1013C0001343E367020709D520220A402A4305D0C8
:1013D000236808221A62E36F1343E367E26F002A6F
:1013E0002FD0800606D5880604D5216E002901D0AD
:1013F00020468847E06F21688968490601D40007C4
:1014000024D5204600F024FB20688168490619D5C0
:101410008168402291438160E06E002812D020490B
:101420008163E06EFEF738FF00280AD0E06E816B22
:1014300006E0850610D58D060ED5216E1CE02046EF
:101440008847F8BD2046FFF78EFFF8BD2046FFF71E
:101450008AFF0020E067F8BDC50208D55B0206D50B
:101460000120000510622046FFF77CFFF8BD03064F
:1014700005D50B0603D5616E0029E0D1F8BD400605
:10148000FCD54806FAD51368204640218B431360EB
:10149000202161670021616600F070F8F8BD00004E
:1014A0003D1A000810B5040003D0606F002802D078
:1014B00007E0012010BD002170200155204600F0FA
:1014C00027F8242060672068016849084900016006
:1014D000204600F0CDFA0128ECD0606A002802D046
:1014E000204600F015FA206841680922D202914393
:1014F0004160206881682A229143816020680168E8
:10150000012211430160204600F068FA10BD00007E
:1015100010B586B0044614216846FEF748FE15490A
:101520002068884223D11448816B01225204114360
:101530008163C16A01221143C162C06A69461040D9
:1015400005900C20009002200190002002900320C2
:1015500003900420049005200007FEF7D1FE00222E
:1015600011461C20FEF7E4FF1C20FEF7D7FF06B053
:1015700010BD000000440040001002407047FEE72C
:1015800010B504490448FEF762FE0249491E08707E
:1015900010BD00001900002004000020F0B587B045
:1015A00014216846FEF703FE2F48C16A0126314325
:1015B000C162C16A31400591C16A02242143C162FE
:1015C000C16A21400591C26A04210A43C262C26A0B
:1015D0000A400592C26A80210A43C262C06A234D52
:1015E000084005273F070590002229463846FEF7A8
:1015F00049FF002207211E48FEF744FF0095002501
:1016000001966946384602950394FEF779FE132049
:10161000184F00906946019702951748FEF770FE33
:10162000200300906946019702951148FEF768FE75
:101630000720009069460196029503940C48FEF736
:101640005FFE002211460520FEF772FF0520FEF71F
:1016500065FF002211460720FEF76AFF0720FEF70C
:101660005DFF07B0F0BD00000010024002900000D6
:1016700000080050000011100004005030B591B077
:1016800014216846FEF793FD0024282106A805943E
:10169000FEF78DFD1D491E4812C01F2101608460A8
:1016A000C46004611B49446141600838FFF79AFB3C
:1016B000684604704470847003940022694614489C
:1016C0000494FFF72FFD012568460575457585755E
:1016D000C475002205A90E48FFF7C2FC68460476CF
:1016E000447684760F20079400060C9009940A949F
:1016F0000B940D9408A8057628020F90002206A9E5
:101700000348FFF7E5FB11B030BD000000280040A2
:1017100030000020FF03000010B50D480B490160A8
:10172000FF210531416000218160C160012201611A
:10173000520282614161016220224162C261816282
:101740000721C162FFF77CFD10BD000000300140A1
:101750005400002010B50A4808490160E1214902FF
:10176000416000218160C16001618161C1610C2221
:10177000016242614162FFF795FE10BD00440040E6
:10178000AC000020704700008307FF22DB0E9A4068
:101790008907090E994000280BDA0007000F083866
:1017A000830808489B001818C36993430B43C3611F
:1017B0007047830804489B001B181868904308432F
:1017C0001860704700ED00E000E400E07047002280
:1017D000014602E00A39C9B2521C0A29FAD210079E
:1017E000000E0843704770B504460068C16849069A
:1017F00013D40021C943C160FEF74AFE7D26054689
:10180000F60006E0FEF744FE401BB04201D903207B
:1018100070BD2068C0684006F4D5002070BD00008F
:1018200010B50248FFF7AEFA10BD000030000020EE
:10183000704710B5FEF732FE10BD000010B59CB029
:1018400038216846FEF7B3FC142117A8FEF7AFFC59
:1018500024210EA8FEF7ABFC174801680322D20230
:101860009143C214891801600A20009001211020C0
:101870000490059102200A9080040C9003910001CD
:1018800000240D900B946846FFF72EF80F20179058
:101890000320189019941A9401211B9417A8FEF79D
:1018A00011FF22200E90012040040F9011940EA8E9
:1018B000FEF742FE1CB010BD0070004010480168E9
:1018C000821511430160C1680E4A1140C160016870
:1018D0000D4A114001608168490849008160016832
:1018E0000122920491430160C168FD2212049143D8
:1018F000C160002101610549C00388607047000094
:10190000001002400C40FF88F6FFF6FE00ED00E0FC
:1019100010B5818CC90707D001684A6801235B04B0
:101920009A43836A1A434A60818C890707D5016804
:101930004A6801231B049A43C36A1A434A60818C94
:10194000490707D501684A6801239B049A43036B42
:101950001A434A60818C090707D501684A68012348
:10196000DB039A43436B1A434A60818CC90607D54F
:101970000268916801231B039943836B19439160AB
:10198000818C890607D501688A6801235B039A4325
:10199000C36B1A438A60818C490612D503685A6862
:1019A00001210905046C8A4322435A60026C8A4271
:1019B00007D10268516803235B059943436C1943BF
:1019C0005160818C090607D501684A680123DB0450
:1019D000806C9A4302434A6010BD0000F8B50026AF
:1019E0000446C667FEF754FD054620680068124F9E
:1019F000000709D501212B46002249052046009702
:101A000000F054F900280DD12068006840070BD57C
:101A100001212B46002289052046009700F046F957
:101A2000002801D00320F8BD20206067A067603443
:101A300026740020F8BD0000FFFFFF0110B5806A8A
:101A40000022014640314A834A82FFF78CFC10BDD8
:101A500001680A68FF2321339A430A6001688A6893
:101A6000520852008A602021816700210166704778
:101A7000F8B504462669A268E76932436669102012
:101A800000253E43236832437B491E687B4F3E401E
:101A900016431E602268536803263603B343E66884
:101AA000334353602368A2698B4201D0266A3243D4
:101AB0009E680B273F02BE4316439E60704E23680C
:101AC000704AB3420CD1D2689207920F06D0012A15
:101AD0003ED0022A3AD0032A26D124E0012023E076
:101AE000694EB3420AD1D2680C2632402CD0042A67
:101AF0002ED0082A2AD00C2A16D114E0634EB34205
:101B000022D0634EB3421FD08B420DD1D668032240
:101B10009202164018D001229202B61A18D0B61AB4
:101B200014D0964200D10820564A0126403A594F17
:101B3000F6038B4236D100280CD002280DD00428A1
:101B400012D008281FD11CE00020EDE70220EBE7AF
:101B50000420E9E7FEF76CFE08E01068C00601D536
:101B6000384605E04C4803E0FEF782FE002873D0BB
:101B7000626851005118814205D81103814202D395
:101B800003E03046F4E7012566E0010E0602500846
:101B9000002330185941FEF7C1FA03210902411A06
:101BA0003E4A55E0E169B14232D1030000F0CEF87F
:101BB00009070A0D06250606062B0600E3E7FEF7D1
:101BC00037FE1CE0FEF744FE19E010686168C006AD
:101BD00002D54808324A01E0324A48088018FEF728
:101BE00087FA80B20146304A10399142CBD8511C55
:101BF00001400007400F08432CE0FEF739FE616802
:101C000040004A08EAE76168012248081204E5E753
:101C1000030000F09BF809070A0D06260606062CAD
:101C20000600B0E7FEF704FE1DE0FEF711FE1AE025
:101C300010686168C00602D54808C01902E016485D
:101C40004A081018FEF754FA80B20146164A1039B5
:101C5000914298D82168C8600020206660662846B6
:101C6000F8BDFEF705FE61684A088018EAE761687A
:101C700048088019E6E7000000480040F369FFEFDC
:101C8000003801404010024000440040004C004039
:101C90000050004000093D000024F400FFFC0F004C
:101CA00000127A000048E801EFFF0000FFB581B0A4
:101CB00017460E4604460A9D09E0681C07D0FEF749
:101CC000E7FB0499401AA8420CD8002D0AD02068DE
:101CD000C1693046884318D00020B842EDD00020BA
:101CE00005B0F0BD20680168FF22A1329143016078
:101CF0002068816849084900816020206067A067EA
:101D00000020603420740320EAE70120E5E70000AA
:101D100010B50248FFF728FB10BD0000AC00002002
:101D20000248012101700078704700000000002087
:101D3000012070470020704702480121017000789F
:101D400070470000000000200020704730B4744647
:101D5000641E2578641CAB4200D21D46635D5B00A7
:101D6000E31830BC184702E008C8121F08C1002A57
:101D7000FAD170477047002001E001C1121F002A0C
:101D8000FBD1704710B504460020E070401EE062B1
:101D9000204600F0E0FF002801D0042010BD1348C9
:101DA000201800F07DFF1249884201D0032010BDA9
:101DB00021462031087CE92804D0EB2813D1887C07
:101DC000902810D12046663000F05FFF09490002DC
:101DD000884206D02046823000F057FF06498842EC
:101DE00001D1002010BD022010BD00002E02000015
:101DF00055AA00000046415446415433F0B5002234
:101E0000154B144616019D59002D0CD00768BD4294
:101E10000AD1F5186E688768BE4205D1AD6846697B
:101E2000B54204D000E00124521C022AEAD3022A5F
:101E300002D000290ED105E0002C09D1022907D0DB
:101E40001220F0BD1001C0188089C11FF93901D0DE
:101E50000020F0BD1020F0BD2C01002030B5002185
:101E6000054A0C460B01D558854200D1D450491C77
:101E70000229F7D330BD00002C01002010B50A461E
:101E80000168C46A4989500A241DFEF731F902CC61
:101E9000002904D0884204D3401A241DF7E700200B
:101EA00010BD2168081810BD4269891E921E8A4221
:101EB00001D8002070474289806A4A431018704751
:101EC000F3B581B001980F00056805D000F00BFE56
:101ED000022809D20120FEBDEE68002E02D06869FA
:101EE000B04207D8012605E0411CF4D0696981425F
:101EF000F1D83E4634466869641CA04202D80224E8
:101F0000022E0BD32146019800F0EDFD002807D0EA
:101F10000128E0D0411CDED0B442ECD10020FEBD4F
:101F20000026F64332462146284600F02EFF0028C0
:101F300008D1002F0BD022463946284600F025FF55
:101F4000002804D001280FD001242046FEBDEC60FB
:101F500069692869891E884201D8401E286128794C
:101F6000012108432871F0E73446EEE7F3B581B06C
:101F7000029924300D6804460B22202100F0E5FE72
:101F800000200246082122E0A95C521C202913D916
:101F90002F290CD05C290AD02E2901D0604518D3F6
:101FA00060460B2823D02E2921D10EE0521CAB5CB9
:101FB0002F2BFBD05C2BF9D0AB18029A00281360B2
:101FC00015D02078E5281DD01EE008200B218C4676
:101FD000DAE7802903D3104B5918803909780FA309
:101FE00000E05B1C1E78002E03D08E42F9D1062043
:101FF000FEBD0B46613B192B01D82039C9B22154D3
:10200000401CC1E705202070202901D8042000E0F1
:102010000020E0720020FEBD66300008222A2B2C32
:102020003A3B3C3D3E3F5B5D7C7F000010B5401E6F
:10203000022814D20B4B0201D1188889C41FF93C25
:1020400007D0002801D0401E80B28881002802D02D
:1020500003E00020F9E700209850002010BD022086
:1020600010BD00002C010020F8B5044600210568D1
:1020700000F0D7F8002828D12846E16900F06BFE6F
:10208000020021D1206A0178002913D0C17A890683
:10209000890EA171C17A090710D4214624310B237E
:1020A00006780F78401CF61B491C5B1E04D0002EDE
:1020B000F6D003E0042207E0002E05D000212046E0
:1020C00000F004F80200D7D01046F8BDF3B505467D
:1020D00047690468C069203781B0002803D0012116
:1020E00049058F4201D30420FEBDF9055CD1401C97
:1020F000E861A969002922D06289780A521E10423B
:1021000052D1284600F0EFFC0646012820D9701C69
:1021100035D06069B04241D80298002813D02846D3
:10212000A969FFF7CDFE060010D0012E10D0701C5B
:1021300025D0204600F042FF002820D10AE0218966
:102140007809884230D30020E861CCE70720FEBD43
:102150000220FEBD0122204652020021303000F054
:10216000F4FD0020009031462046FFF79DFE0DE073
:102170000120E070204600F021FF002801D001205E
:10218000FEBD0098401C0090E06A401CE06261893E
:1021900000988142ECD8E16A081AE0623146204694
:1021A000AE61FFF781FEE861F805C00D001930301F
:1021B0006F6128620020FEBD70B5044600210668EC
:1021C00000F02FF80FE03046E16900F0C4FD002870
:1021D0000BD1206A0078E5280AD0002808D0012118
:1021E0002046FFF773FF0028EDD0042807D007E052
:1021F0003046E16900F0AFFD050003D00FE0072095
:1022000005460CE020220021206A00F09EFD2146B8
:102210000B222431206A00F08FFD0120F070284647
:1022200070BDF8B505460768012040050E4681429D
:1022300038D2F00636D16E61AC68002C05D1387802
:10224000032806D37C6A002C03D0788940020090D2
:1022500012E039897009884224D2786A12E028464F
:1022600000F041FC0446401C1AD0022C1AD37869B5
:10227000A04217D90098361A86422146EFD2384636
:10228000FFF712FEAC61E86100280BD0710A40181C
:10229000E861F005C00DC019303028620020F8BD9B
:1022A0000120F8BD0220F8BD10B5094900220B5CE1
:1022B000002B0AD101220A540A18800040184068F5
:1022C000127A0168104688470246104610BD000089
:1022D0004C01002030B4054C2318800000194068E0
:1022E0001B7A04691846A44630BC60474C010020A4
:1022F00030B4054D04462819A40064196468007AB6
:10230000A468A44630BC60474C010020044A111860
:10231000800080184068097A42680846104700002B
:102320004C01002030B4054D04462819A40064195E
:102330006468007AE468A44630BC60474C01002021
:1023400038B5044600F03EF900280CD16946204615
:1023500000F05DFE002806D12069FFF767FE002827
:1023600001D10021216038BDF7B582B003980090FB
:10237000684600F017FC002802DA0B2005B0F0BD1B
:102380000D4E850074590027002C03D02046FFF71E
:1023900065FD27700298002800D007707051002852
:1023A00002D00498012801D00020E7E7002202A90A
:1023B00003A800F01FFAE1E72C000020F7B592B067
:1023C000050009D09606B60E32460CA913A800F0F7
:1023D00011FA040003D0ECE0092015B0F0BD0C9810
:1023E00000906846139900F043FB04000ED108A842
:1023F000C07B000601D5062408E0700801D0012149
:1024000000E000216846FFF7F9FC0446F006400FA3
:102410005FD0002C18D0042C11D10020684902E0B4
:10242000401C022803D202018A58002AF8D102284F
:1024300004D06846FFF7C0FE044600E012240820DE
:102440000643002C0BD0B4E0684680791121084285
:1024500001D00724ADE0700701D50824A9E03007BA
:1024600047D500F09DFB0746089839460E3000F02E
:102470004EFD08983946163000F049FD0898202195
:10248000C17208990C9800F0EDFB074600220899EC
:102490000C9800F02AFD089800211C3000F037FD50
:1024A00001200C99002FC87021D0C86A0D9000221D
:1024B0003946684600F0E0FC04007AD10D990C988A
:1024C00000F049FC04467F1E0C98002CC7600CD01D
:1024D0006FE0002C6DD168468079C10601D50424D7
:1024E00067E0B10701D5C007B3D1300701D540205F
:1024F00006430C98C06A68620898A862700801D008
:10250000012100E00021684600F06AFB28610028F4
:1025100053D008990C9800F0A5FBA86008981C30CF
:1025200000F0B3FBE8600020E8620C9929600C9988
:102530000122C988A9802E75687528620146A861A4
:102540002846303052020F9000F0FFFBB00632D523
:10255000EE68002E2FD0AE610C98A9684089470222
:102560000FE0284600F0BFFA0146012800D80224F7
:10257000481C03D0F61B002C03D004E00124F61BFA
:1025800001E0BE42EDD8E961002C12D1F00512D075
:102590000C98FFF789FC00280FD0710A0A182A62EC
:1025A0000C98012340780F99FFF7A2FE002802D073
:1025B00001240020286020460FE70224F9E70000EC
:1025C0002C010020F8B50446694600F020FD0028E3
:1025D0000FD1217D4A060CD508060FD5009821465B
:1025E000226A407801233031FFF79CFE002801D099
:1025F0000120F8BD207D4006400E207500F0D0FA85
:102600000646616A009800F0A6FB0028F1D1A56A91
:102610002021E87A0843E8722946A268206800F081
:1026200064FC28461C30E16800F071FC2846314605
:10263000163000F06CFC28460021123000F06FFCD0
:1026400000980121C17000F06FFC217DBF22114074
:102650002175F8BDFFB589B0009104460C990020A2
:102660000860154603A9204600F0D1FC002806D1D9
:10267000607D002803D1207D800702D407200DB0A3
:10268000F0BDA069214630314219012701918242F3
:1026900000D2C543A5E0A169C8057CD103984E0AC4
:1026A0004089401E06401CD1002906D0E06A00285F
:1026B00008D02046FFF7E2FB08E0A068002807D119
:1026C000002100E0E1692046FFF7FAFB00287DD0F9
:1026D000012831D0411C58D0E061A168002900D107
:1026E000A060207D00060CD50398226A4078012363
:1026F0000199FFF717FE002847D1207D4006400EC4
:102700002075E1690398FFF7CFFB002814D08019EA
:102710000290680A049027D03218039841898A42AF
:1027200001D9891B04914078049B029A0099FFF714
:10273000F9FD002829D102E0022060759FE7216A97
:102740000298081A049988420BD24102009801228B
:1027500009185202019800F0EFFA207D4006400E61
:1027600020750498460229E0216A0298814210D01F
:10277000E168A06988420CD2039801234078029A4C
:102780000199FFF7B5FD002803D06775012076E7B2
:1027900001E002982062208B0121C005C00D490292
:1027A0000E1AAE4200D92E4600193246303000993A
:1027B00000F0C2FA217D8020014321750098801924
:1027C0000090A0698019A061E16800E00CE08842F7
:1027D00000D80846E0600C980C9900688019AD1B81
:1027E0000860002D00D056E7207D40210843207569
:1027F000002044E7F7B588B000270E460F6000F0D0
:10280000D1F9050002D50B200BB0F0BD9149A8000D
:102810000C58002C15D034600A98460820787600B1
:10282000002804D06078FFF771FDC1070BD00020AD
:102830002070E8B26070FFF737FDC10709D00320B0
:10284000E2E70C20E0E7002E01D0400705D400208D
:10285000DAE7002E03D0400701D50A20D4E700258F
:1028600029462046FFF78EFA022821D102AF28011F
:102870000019FF30EF300179002903D0083000F053
:1028800004FA00E00020A9006D1C7850042DEED35E
:102890000026B0003D58002D06D029462046FFF7FF
:1028A00071FA022801D203E00320761C042EF0D333
:1028B000042810D0022876D220463B3000F0F0F9F0
:1028C000C11FFF39FA396ED12046463000F0E8F9D1
:1028D000010002D006E0012096E72046543000F0C7
:1028E000D4F901464020A161005DA070012801D00B
:1028F000022858D1484301903D20005D60810028A6
:1029000051D0411E08424ED12046413000F0C8F956
:102910002081000747D12046433000F0C1F906006E
:1029200004D12046503000F0B0F9064620463E3033
:1029300000F0B6F9070036D00198391820890690C2
:1029400000090818009086422DD36189301AFDF7DE
:10295000CFFB002827D040490326884200D8022612
:102960003E49884200D80126E919E561801C2162B0
:102970006061009AAA18A262032E16D0069A002A55
:1029800011D0019A89186162022E1FD041004118AE
:10299000C0074908C00F0818FF30FF300130A16997
:1029A000400A814214D20D202EE720465A3000F012
:1029B00077F90028F7D120890028F4D120465C302F
:1029C00000F063F9606260698000E5E74000E3E7DA
:1029D0000020C0432061E06080202071032E2ED1B2
:1029E0002046603000F05CF9012828D1691C20469F
:1029F00000F0B1F9002822D120711948201800F008
:102A00004FF9184988421AD12046303000F03DF97C
:102A10001549884213D185208000201800F035F92F
:102A2000124988420BD14320C000201800F02DF934
:102A3000206187208000201800F027F9E060054918
:102A40002670091F0888401C0880E0802046FFF798
:102A500005FAFCE62C000020F5FF0000F50F000051
:102A60002E02000055AA000052526141727241616B
:102A700073B504460668019801E0401C0190017896
:102A80002F29FAD05C29F8D00021A16001982546B1
:102A900000782035202805D28020E8732046FFF7F3
:102AA000C0FB7CBD01A92046FFF760FA0028F8D1E1
:102AB0002046FFF7D9FAE97B002805D00428F0D199
:102AC0004907EED405207CBD4907FCD4A079C00697
:102AD000F8D5A08AC005C00D81193046303100F00C
:102AE000C1F8A060DEE7F8B504680D4602290BD3F3
:102AF0006069A84208D900262078F643012806D04C
:102B000002282CD003283AD001263046F8BD6808A8
:102B10004719206A790A4118204600F01CF900285C
:102B2000F3D1F805C00D00192030007C00907F1C07
:102B3000206A790A4118204600F00DF90028E4D1F6
:102B4000F805C00D00192030007C009900020843F0
:102B5000E90701D00609D8E70605360DD5E7206A52
:102B6000290A4118204600F0F6F80028CDD12806A1
:102B7000C00D0019303000F093F80646C5E7206A12
:102B8000E9094118204600F0E6F80028BDD16806A2
:102B9000C00D0019303000F078F806013609B4E7AE
:102BA0000020704710B5044600202268C043002A68
:102BB00013D0114600E0491C0B78212B0ED33A2B81
:102BC000F9D11378521C303B0A2B06D28A4204D129
:102BD000002B02D1491C1846216010BD002010BDF9
:102BE000F0B503461E4A1C68002005015659A6424E
:102BF00008D1AD186E689F68BE4203D1AD685E69AA
:102C0000B54202D0401C0228EFD3022813D1002085
:102C100002E0401C022803D205015559002DF8D1CD
:102C200002280FD005015451AD189C686C605B6997
:102C3000AB600023AB81002906D001018918898986
:102C4000002906D00020F0BD010189188989491C9E
:102C500001E0FF21013103019A189181401CF0BD70
:102C60002C01002070B5064608460D461A3000F0CB
:102C700017F804463078032805D12846143000F0B0
:102C80000FF800040443204670BDC1788278090221
:102C90001143427809021143007809020843704742
:102CA000014640780978000208437047FFB0FFB042
:102CB000A4B0FDF7FBFBFEF7C1FDFEF76FFCFEF7CE
:102CC000DDFCFEF729FDFEF745FDFEF759FC01226C
:102CD0000F498FA8FFF748FB0EA207CA6B4607C330
:102CE00003AD0A2269462846FFF768FBFFAC703443
:102CF00018220BA12046FDF741FAFFAB88331522BD
:102D000021462846FFF7A6FC2846FFF719FBFEE7F9
:102D100019000020544553542E545854000000000C
:102D200048656C6C6F2066726F6D20746865205307
:102D3000544D333200000000002A05D00B78037098
:102D4000401C491C521EF9D17047C9B20170401C89
:102D5000521EFBD1704770B50446C06A0D4600266E
:102D6000A84210D0204600F029F906000BD12146D8
:102D7000607801232A463031FFF7BAFA002801D0E3
:102D8000751E0126E562304670BDF8B5022617466D
:102D90000D46044602296DD36069A8426AD920789D
:102DA000012804D002283CD0032863D149E06808F8
:102DB00040190090216A400A09182046FFF7CBFF0E
:102DC000060057D100980099C005C00D491C001994
:102DD00030300091E90705D001780907090F3A0161
:102DE000114300E0394601700120E0700098216A2B
:102DF000400A09182046FFF7AEFF06003AD10098B6
:102E0000C005C00D00193030E90702D03905090EA0
:102E100005E001783A0509090901120F1143017013
:102E200026E0206A290A41182046FFF794FF060091
:102E300020D12806C00D0019B9B2303000F06FF86B
:102E400016E0206AE90941182046FFF784FF0600D2
:102E500010D16806C00D001930300546FFF715FF88
:102E6000010F3801090700090143284600F04FF817
:102E70000120E0703046F8BDF8B5056813460E46EF
:102E8000074602292DD36869B0422AD9002B07D002
:102E90000022D24319462846FFF777FF00281FD1AA
:102EA00031463846FFF71FFE040018D0012C18D019
:102EB000601C18D0002231462846FFF766FF002824
:102EC0000ED1696928698A1E904205D2401C28618A
:102ED00028790122104328712646B142E0D800200B
:102EE000F8BD0220F8BD0120F8BD70B50C460646BD
:102EF0002046154691B21A3000F011F830780328B8
:102F000004D12046290C143000F009F870BD01707E
:102F1000090A4170090A8170090AC170704701707D
:102F2000090A41707047000070B5044600F046F889
:102F3000050039D1207803282ED1207901282BD102
:102F400042022046303000210646FFF7FEFE1848B8
:102F500016492018FFF7E3FF16493046FFF7D7FF61
:102F60008520800014492018FFF7D1FF4320C000BE
:102F700020182169FFF7CBFF872080002018E16827
:102F8000FFF7C5FFE2690123521CE2626078314617
:102F9000FFF7C8F900202071002260781146FFF782
:102FA00099F9002800D00125284670BD55AA0000D7
:102FB0002E0200005252614172724161F8B504461E
:102FC000C0780027002820D0E56A2146607830319B
:102FD00001232A460091FFF7A5F9002801D0012717
:102FE00013E00020E070206AA169281A88420CD200
:102FF000A67808E0A0690123451960782A4600995F
:10300000FFF790F9761E022EF4D23846F8BD70B55F
:103010000D4604000ED0206800280BD0017800294E
:1030200008D0C188A288914204D14078FFF76EF998
:10303000C00703D000202860092070BD20682860E8
:10304000002070BD00000000000000000102030429
:1030500006070809030406080C10182030000000B9
:1030600000010203040043554541414141434545A8
:103070004549494941414592924F4F4F5555594F06
:10308000554F9C4F9E9F41494F55A5A5A6A7A8A95E
:10309000AAABACADAEAFB0B1B2B3B4414141B8B977
:1030A000BABBBCBDBEBFC0C1C2C3C4C54141C8C913
:1030B000CACBCCCDCECFD1D145454549494949D9D7
:1030C000DADBDCDD49DF4FE14F4F4F4FE6E8E855F3
:1030D00055555959EEEFF0F1F2F3F4F5F6F7F8F92A
:1030E000FAFBFCFDFEFF010004001000400000019F
:1030F000000200000100020004000800100020008F
:103100000000000024310008000000203000000012
:10311000661D0008543100083000002028410000DE
:10312000761D000801000000211D0008391D00085F
:10313000351D0008491D0008311D00080000000071
:10314000000000000000000000002000000000005F
:04315000000000007B
:04000005080000C12E
:00000001FF
